{
  "contractName": "Faucet",
  "abi": [
    {
      "inputs": [],
      "stateMutability": "nonpayable",
      "type": "constructor"
    },
    {
      "stateMutability": "payable",
      "type": "receive",
      "payable": true
    },
    {
      "inputs": [
        {
          "internalType": "uint256",
          "name": "withdraw_amount",
          "type": "uint256"
        }
      ],
      "name": "withdraw",
      "outputs": [],
      "stateMutability": "nonpayable",
      "type": "function"
    },
    {
      "inputs": [],
      "name": "destroy",
      "outputs": [],
      "stateMutability": "nonpayable",
      "type": "function"
    }
  ],
  "bytecode": "0x608060405234801561001057600080fd5b50336000806101000a81548173ffffffffffffffffffffffffffffffffffffffff021916908373ffffffffffffffffffffffffffffffffffffffff16021790555061025f806100606000396000f3fe60806040526004361061002d5760003560e01c80632e1a7d4d1461003957806383197ef01461006257610034565b3661003457005b600080fd5b34801561004557600080fd5b50610060600480360381019061005b91906101fc565b610079565b005b34801561006e57600080fd5b506100776100d8565b005b67016345785d8a000081111561008e57600080fd5b3373ffffffffffffffffffffffffffffffffffffffff166108fc829081150290604051600060405180830381858888f193505050501580156100d4573d6000803e3d6000fd5b5050565b60008054906101000a900473ffffffffffffffffffffffffffffffffffffffff1673ffffffffffffffffffffffffffffffffffffffff163373ffffffffffffffffffffffffffffffffffffffff161461013057600080fd5b60008054906101000a900473ffffffffffffffffffffffffffffffffffffffff1673ffffffffffffffffffffffffffffffffffffffff163373ffffffffffffffffffffffffffffffffffffffff161461018857600080fd5b60008054906101000a900473ffffffffffffffffffffffffffffffffffffffff1673ffffffffffffffffffffffffffffffffffffffff16ff5b600080fd5b6000819050919050565b6101d9816101c6565b81146101e457600080fd5b50565b6000813590506101f6816101d0565b92915050565b600060208284031215610212576102116101c1565b5b6000610220848285016101e7565b9150509291505056fea26469706673582212209885e7aaf41cacdf8e7a96167c9366e5e5aa9e2713160ee1a3dda53834b5e70b64736f6c634300080d0033",
  "immutableReferences": {},
  "source": "// SPDX-License-Identifier: CC-BY-SA-4.0\n\n// Version of Solidity compiler this program was written for\npragma solidity 0.8.13;\n\n// Our first contract is a faucet!\ncontract Faucet {\n    // Declare a new variable for the address of the owner\n    address owner;\n\n    // Initialize Faucet contract: setting owner\n    constructor() {\n        // msg.sender = Address who creates the contract\n        owner = msg.sender;\n    }\n\n    // Accept any incoming amount\n    receive() external payable {}\n\n    // Access control statement\n    modifier onlyOwner() {\n        require(msg.sender == owner);\n        _;\n    }\n\n    // Give out ether to anyone who asks\n    function withdraw(uint withdraw_amount) public {\n        // Limit withdrawal amount\n        require(withdraw_amount <= 100000000000000000);\n        // require(withdraw_amount <= 0.1 ether); (275)\n\n        // Send the amount to the address that requested it\n        payable(msg.sender).transfer(withdraw_amount);\n    }\n\n    // Contract destructor\n    function destroy() public onlyOwner {\n        require(msg.sender == owner);\n        selfdestruct(payable(owner));\n    }\n}\n",
  "sourcePath": "/home/raul/projects/Blockchain/EthereumBook - Mastering Ethereum/truffle/contracts/Faucet.sol",
  "compiler": {
    "name": "solc",
    "version": "0.8.13+commit.abaa5c0e.Emscripten.clang"
  },
  "schemaVersion": "3.4.14",
  "updatedAt": "2023-10-06T14:18:40.894Z",
  "networkType": "ethereum",
  "devdoc": {
    "kind": "dev",
    "methods": {},
    "version": 1
  },
  "userdoc": {
    "kind": "user",
    "methods": {},
    "version": 1
  }
}